{
  "_format": "hh-sol-artifact-1",
  "contractName": "DigitalHouseVault",
  "sourceName": "contracts/DigitalHouseVault.sol",
  "abi": [
    {
      "inputs": [
        {
          "internalType": "address",
          "name": "_pyusdToken",
          "type": "address"
        },
        {
          "internalType": "address",
          "name": "_realEstateAddress",
          "type": "address"
        },
        {
          "internalType": "address",
          "name": "_digitalHouseAddress",
          "type": "address"
        },
        {
          "internalType": "string",
          "name": "_vaultId",
          "type": "string"
        },
        {
          "internalType": "string",
          "name": "_propertyDetails",
          "type": "string"
        },
        {
          "internalType": "uint256",
          "name": "_basePrice",
          "type": "uint256"
        },
        {
          "internalType": "string",
          "name": "_masterAccessCode",
          "type": "string"
        }
      ],
      "stateMutability": "nonpayable",
      "type": "constructor"
    },
    {
      "inputs": [
        {
          "internalType": "address",
          "name": "owner",
          "type": "address"
        }
      ],
      "name": "OwnableInvalidOwner",
      "type": "error"
    },
    {
      "inputs": [
        {
          "internalType": "address",
          "name": "account",
          "type": "address"
        }
      ],
      "name": "OwnableUnauthorizedAccount",
      "type": "error"
    },
    {
      "inputs": [],
      "name": "ReentrancyGuardReentrantCall",
      "type": "error"
    },
    {
      "anonymous": false,
      "inputs": [
        {
          "indexed": true,
          "internalType": "address",
          "name": "bidder",
          "type": "address"
        },
        {
          "indexed": false,
          "internalType": "uint256",
          "name": "amount",
          "type": "uint256"
        }
      ],
      "name": "BidPlaced",
      "type": "event"
    },
    {
      "anonymous": false,
      "inputs": [
        {
          "indexed": true,
          "internalType": "address",
          "name": "bidder",
          "type": "address"
        },
        {
          "indexed": false,
          "internalType": "uint256",
          "name": "amount",
          "type": "uint256"
        }
      ],
      "name": "BidWithdrawn",
      "type": "event"
    },
    {
      "anonymous": false,
      "inputs": [
        {
          "indexed": true,
          "internalType": "address",
          "name": "booker",
          "type": "address"
        },
        {
          "indexed": false,
          "internalType": "string",
          "name": "accessCode",
          "type": "string"
        }
      ],
      "name": "CheckInCompleted",
      "type": "event"
    },
    {
      "anonymous": false,
      "inputs": [
        {
          "indexed": true,
          "internalType": "address",
          "name": "booker",
          "type": "address"
        },
        {
          "indexed": false,
          "internalType": "uint256",
          "name": "nonce",
          "type": "uint256"
        }
      ],
      "name": "CheckOutCompleted",
      "type": "event"
    },
    {
      "anonymous": false,
      "inputs": [
        {
          "indexed": true,
          "internalType": "address",
          "name": "updatedBy",
          "type": "address"
        },
        {
          "indexed": false,
          "internalType": "string",
          "name": "newCode",
          "type": "string"
        }
      ],
      "name": "MasterAccessCodeUpdated",
      "type": "event"
    },
    {
      "anonymous": false,
      "inputs": [
        {
          "indexed": true,
          "internalType": "address",
          "name": "previousOwner",
          "type": "address"
        },
        {
          "indexed": true,
          "internalType": "address",
          "name": "newOwner",
          "type": "address"
        }
      ],
      "name": "OwnershipTransferred",
      "type": "event"
    },
    {
      "anonymous": false,
      "inputs": [
        {
          "indexed": true,
          "internalType": "address",
          "name": "originalBooker",
          "type": "address"
        },
        {
          "indexed": true,
          "internalType": "address",
          "name": "newBooker",
          "type": "address"
        },
        {
          "indexed": false,
          "internalType": "uint256",
          "name": "amount",
          "type": "uint256"
        }
      ],
      "name": "ReservationCeded",
      "type": "event"
    },
    {
      "anonymous": false,
      "inputs": [
        {
          "indexed": true,
          "internalType": "address",
          "name": "booker",
          "type": "address"
        },
        {
          "indexed": false,
          "internalType": "uint256",
          "name": "amount",
          "type": "uint256"
        },
        {
          "indexed": false,
          "internalType": "uint256",
          "name": "checkInDate",
          "type": "uint256"
        }
      ],
      "name": "ReservationCreated",
      "type": "event"
    },
    {
      "inputs": [
        {
          "internalType": "uint256",
          "name": "",
          "type": "uint256"
        }
      ],
      "name": "auctionBids",
      "outputs": [
        {
          "internalType": "address",
          "name": "bidder",
          "type": "address"
        },
        {
          "internalType": "uint256",
          "name": "amount",
          "type": "uint256"
        },
        {
          "internalType": "uint256",
          "name": "timestamp",
          "type": "uint256"
        },
        {
          "internalType": "bool",
          "name": "isActive",
          "type": "bool"
        }
      ],
      "stateMutability": "view",
      "type": "function"
    },
    {
      "inputs": [],
      "name": "basePrice",
      "outputs": [
        {
          "internalType": "uint256",
          "name": "",
          "type": "uint256"
        }
      ],
      "stateMutability": "view",
      "type": "function"
    },
    {
      "inputs": [],
      "name": "cancelReservation",
      "outputs": [],
      "stateMutability": "nonpayable",
      "type": "function"
    },
    {
      "inputs": [
        {
          "internalType": "uint256",
          "name": "_bidIndex",
          "type": "uint256"
        }
      ],
      "name": "cedeReservation",
      "outputs": [],
      "stateMutability": "nonpayable",
      "type": "function"
    },
    {
      "inputs": [],
      "name": "checkIn",
      "outputs": [
        {
          "internalType": "string",
          "name": "accessCode",
          "type": "string"
        }
      ],
      "stateMutability": "nonpayable",
      "type": "function"
    },
    {
      "inputs": [],
      "name": "checkOut",
      "outputs": [],
      "stateMutability": "nonpayable",
      "type": "function"
    },
    {
      "inputs": [
        {
          "internalType": "uint256",
          "name": "_stakeAmount",
          "type": "uint256"
        },
        {
          "internalType": "uint256",
          "name": "_checkInDate",
          "type": "uint256"
        },
        {
          "internalType": "uint256",
          "name": "_checkOutDate",
          "type": "uint256"
        }
      ],
      "name": "createReservation",
      "outputs": [],
      "stateMutability": "nonpayable",
      "type": "function"
    },
    {
      "inputs": [],
      "name": "currentAccessCodeNonce",
      "outputs": [
        {
          "internalType": "uint256",
          "name": "",
          "type": "uint256"
        }
      ],
      "stateMutability": "view",
      "type": "function"
    },
    {
      "inputs": [],
      "name": "currentNonce",
      "outputs": [
        {
          "internalType": "uint256",
          "name": "",
          "type": "uint256"
        }
      ],
      "stateMutability": "view",
      "type": "function"
    },
    {
      "inputs": [],
      "name": "currentReservation",
      "outputs": [
        {
          "internalType": "address",
          "name": "booker",
          "type": "address"
        },
        {
          "internalType": "uint256",
          "name": "stakeAmount",
          "type": "uint256"
        },
        {
          "internalType": "uint256",
          "name": "shares",
          "type": "uint256"
        },
        {
          "internalType": "uint256",
          "name": "checkInDate",
          "type": "uint256"
        },
        {
          "internalType": "uint256",
          "name": "checkOutDate",
          "type": "uint256"
        },
        {
          "internalType": "uint256",
          "name": "nonce",
          "type": "uint256"
        },
        {
          "internalType": "bool",
          "name": "isActive",
          "type": "bool"
        }
      ],
      "stateMutability": "view",
      "type": "function"
    },
    {
      "inputs": [],
      "name": "currentState",
      "outputs": [
        {
          "internalType": "enum DigitalHouseVault.VaultState",
          "name": "",
          "type": "uint8"
        }
      ],
      "stateMutability": "view",
      "type": "function"
    },
    {
      "inputs": [],
      "name": "digitalHouseAddress",
      "outputs": [
        {
          "internalType": "address",
          "name": "",
          "type": "address"
        }
      ],
      "stateMutability": "view",
      "type": "function"
    },
    {
      "inputs": [
        {
          "internalType": "uint256",
          "name": "_nonce",
          "type": "uint256"
        }
      ],
      "name": "getAccessCode",
      "outputs": [
        {
          "internalType": "string",
          "name": "",
          "type": "string"
        }
      ],
      "stateMutability": "view",
      "type": "function"
    },
    {
      "inputs": [],
      "name": "getAuctionBids",
      "outputs": [
        {
          "components": [
            {
              "internalType": "address",
              "name": "bidder",
              "type": "address"
            },
            {
              "internalType": "uint256",
              "name": "amount",
              "type": "uint256"
            },
            {
              "internalType": "uint256",
              "name": "timestamp",
              "type": "uint256"
            },
            {
              "internalType": "bool",
              "name": "isActive",
              "type": "bool"
            }
          ],
          "internalType": "struct DigitalHouseVault.AuctionBid[]",
          "name": "",
          "type": "tuple[]"
        }
      ],
      "stateMutability": "view",
      "type": "function"
    },
    {
      "inputs": [],
      "name": "getCurrentAccessCode",
      "outputs": [
        {
          "internalType": "string",
          "name": "",
          "type": "string"
        }
      ],
      "stateMutability": "view",
      "type": "function"
    },
    {
      "inputs": [],
      "name": "getCurrentReservation",
      "outputs": [
        {
          "components": [
            {
              "internalType": "address",
              "name": "booker",
              "type": "address"
            },
            {
              "internalType": "uint256",
              "name": "stakeAmount",
              "type": "uint256"
            },
            {
              "internalType": "uint256",
              "name": "shares",
              "type": "uint256"
            },
            {
              "internalType": "uint256",
              "name": "checkInDate",
              "type": "uint256"
            },
            {
              "internalType": "uint256",
              "name": "checkOutDate",
              "type": "uint256"
            },
            {
              "internalType": "uint256",
              "name": "nonce",
              "type": "uint256"
            },
            {
              "internalType": "bool",
              "name": "isActive",
              "type": "bool"
            }
          ],
          "internalType": "struct DigitalHouseVault.Reservation",
          "name": "",
          "type": "tuple"
        }
      ],
      "stateMutability": "view",
      "type": "function"
    },
    {
      "inputs": [],
      "name": "getMasterAccessCode",
      "outputs": [
        {
          "internalType": "string",
          "name": "",
          "type": "string"
        }
      ],
      "stateMutability": "view",
      "type": "function"
    },
    {
      "inputs": [],
      "name": "getVaultInfo",
      "outputs": [
        {
          "internalType": "string",
          "name": "",
          "type": "string"
        },
        {
          "internalType": "enum DigitalHouseVault.VaultState",
          "name": "",
          "type": "uint8"
        },
        {
          "internalType": "uint256",
          "name": "",
          "type": "uint256"
        },
        {
          "internalType": "uint256",
          "name": "",
          "type": "uint256"
        }
      ],
      "stateMutability": "view",
      "type": "function"
    },
    {
      "inputs": [
        {
          "internalType": "uint256",
          "name": "_nonce",
          "type": "uint256"
        }
      ],
      "name": "isAccessCodeActive",
      "outputs": [
        {
          "internalType": "bool",
          "name": "",
          "type": "bool"
        }
      ],
      "stateMutability": "view",
      "type": "function"
    },
    {
      "inputs": [],
      "name": "lastBooker",
      "outputs": [
        {
          "internalType": "address",
          "name": "",
          "type": "address"
        }
      ],
      "stateMutability": "view",
      "type": "function"
    },
    {
      "inputs": [],
      "name": "masterAccessCode",
      "outputs": [
        {
          "internalType": "string",
          "name": "",
          "type": "string"
        }
      ],
      "stateMutability": "view",
      "type": "function"
    },
    {
      "inputs": [],
      "name": "originalBooker",
      "outputs": [
        {
          "internalType": "address",
          "name": "",
          "type": "address"
        }
      ],
      "stateMutability": "view",
      "type": "function"
    },
    {
      "inputs": [],
      "name": "owner",
      "outputs": [
        {
          "internalType": "address",
          "name": "",
          "type": "address"
        }
      ],
      "stateMutability": "view",
      "type": "function"
    },
    {
      "inputs": [
        {
          "internalType": "uint256",
          "name": "_bidAmount",
          "type": "uint256"
        }
      ],
      "name": "placeBid",
      "outputs": [],
      "stateMutability": "nonpayable",
      "type": "function"
    },
    {
      "inputs": [],
      "name": "propertyDetails",
      "outputs": [
        {
          "internalType": "string",
          "name": "",
          "type": "string"
        }
      ],
      "stateMutability": "view",
      "type": "function"
    },
    {
      "inputs": [],
      "name": "pyusdToken",
      "outputs": [
        {
          "internalType": "contract IERC20",
          "name": "",
          "type": "address"
        }
      ],
      "stateMutability": "view",
      "type": "function"
    },
    {
      "inputs": [],
      "name": "realEstateAddress",
      "outputs": [
        {
          "internalType": "address",
          "name": "",
          "type": "address"
        }
      ],
      "stateMutability": "view",
      "type": "function"
    },
    {
      "inputs": [],
      "name": "renounceOwnership",
      "outputs": [],
      "stateMutability": "nonpayable",
      "type": "function"
    },
    {
      "inputs": [
        {
          "internalType": "address",
          "name": "newOwner",
          "type": "address"
        }
      ],
      "name": "transferOwnership",
      "outputs": [],
      "stateMutability": "nonpayable",
      "type": "function"
    },
    {
      "inputs": [
        {
          "internalType": "string",
          "name": "_newCode",
          "type": "string"
        }
      ],
      "name": "updateMasterAccessCode",
      "outputs": [],
      "stateMutability": "nonpayable",
      "type": "function"
    },
    {
      "inputs": [],
      "name": "vaultId",
      "outputs": [
        {
          "internalType": "string",
          "name": "",
          "type": "string"
        }
      ],
      "stateMutability": "view",
      "type": "function"
    },
    {
      "inputs": [
        {
          "internalType": "uint256",
          "name": "_bidIndex",
          "type": "uint256"
        }
      ],
      "name": "withdrawBid",
      "outputs": [],
      "stateMutability": "nonpayable",
      "type": "function"
    }
  ],
  "bytecode": "0x60806040523480156200001157600080fd5b50604051620033d1380380620033d183398101604081905262000034916200022f565b600160005533806200006057604051631e4fbdf760e01b81526000600482015260240160405180910390fd5b6200006b81620000fb565b50600280546001600160a01b03808a166001600160a01b0319928316179092556014805489841690831617905560158054928816929091169190911790556003620000b7858262000392565b506004620000c6848262000392565b5060058290556013620000da828262000392565b50506002805460ff60a01b1916905550506001600655506200045e92505050565b600180546001600160a01b038381166001600160a01b0319831681179093556040519116919082907f8be0079c531659141344cd1fd0a4f28419497f9722a3daafe3b4186f6b6457e090600090a35050565b80516001600160a01b03811681146200016557600080fd5b919050565b634e487b7160e01b600052604160045260246000fd5b600082601f8301126200019257600080fd5b81516001600160401b0380821115620001af57620001af6200016a565b604051601f8301601f19908116603f01168101908282118183101715620001da57620001da6200016a565b81604052838152602092508683858801011115620001f757600080fd5b600091505b838210156200021b5785820183015181830184015290820190620001fc565b600093810190920192909252949350505050565b600080600080600080600060e0888a0312156200024b57600080fd5b62000256886200014d565b965062000266602089016200014d565b955062000276604089016200014d565b60608901519095506001600160401b03808211156200029457600080fd5b620002a28b838c0162000180565b955060808a0151915080821115620002b957600080fd5b620002c78b838c0162000180565b945060a08a0151935060c08a0151915080821115620002e557600080fd5b50620002f48a828b0162000180565b91505092959891949750929550565b600181811c908216806200031857607f821691505b6020821081036200033957634e487b7160e01b600052602260045260246000fd5b50919050565b601f8211156200038d57600081815260208120601f850160051c81016020861015620003685750805b601f850160051c820191505b81811015620003895782815560010162000374565b5050505b505050565b81516001600160401b03811115620003ae57620003ae6200016a565b620003c681620003bf845462000303565b846200033f565b602080601f831160018114620003fe5760008415620003e55750858301515b600019600386901b1c1916600185901b17855562000389565b600085815260208120601f198616915b828110156200042f578886015182559484019460019091019084016200040e565b50858210156200044e5787850151600019600388901b60f8161c191681555b5050505050600190811b01905550565b612f63806200046e6000396000f3fe608060405234801561001057600080fd5b50600436106101ef5760003560e01c80637809f6501161010f578063a97606e8116100a2578063c84d966511610071578063c84d96651461044f578063cba5751c1461048e578063cee4250814610496578063f2fde38b146104fa57600080fd5b8063a97606e814610407578063adb610a31461041a578063b545f6b514610423578063c7876ea41461044657600080fd5b806391763009116100de57806391763009146103c45780639979ef45146103d75780639b2a2270146103ea578063a744cd56146103ff57600080fd5b80637809f650146103755780637f98aa711461038857806386d9fefc146103a05780638da5cb5b146103b357600080fd5b806344c50020116101875780636aa0b188116101565780636aa0b188146103305780636b59f488146103475780636be453541461035a578063715018a61461036d57600080fd5b806344c500201461027057806345c853551461029b5780634ea0fc75146102ae578063614e38aa1461031d57600080fd5b80630c3f6acf116101c35780630c3f6acf1461022c5780630eaaf4c81461024d578063183ff0851461026057806333194c0a1461026857600080fd5b80627dc372146101f457806301a4580d1461021257806303cedaa61461021a5780630a45d01714610224575b600080fd5b6101fc61050d565b6040516102099190612a35565b60405180910390f35b6101fc61059b565b61022261073f565b005b6101fc610875565b60025461024090600160a01b900460ff1681565b6040516102099190612a87565b61022261025b366004612a9b565b610882565b6101fc610a74565b6101fc61137a565b601054610283906001600160a01b031681565b6040516001600160a01b039091168152602001610209565b601554610283906001600160a01b031681565b600754600854600954600a54600b54600c54600d546102dc966001600160a01b031695949392919060ff1687565b604080516001600160a01b0390981688526020880196909652948601939093526060850191909152608084015260a0830152151560c082015260e001610209565b600f54610283906001600160a01b031681565b61033960125481565b604051908152602001610209565b610222610355366004612aca565b611387565b601454610283906001600160a01b031681565b6102226114b7565b6101fc610383366004612a9b565b6114c9565b61039061168b565b6040516102099493929190612b7b565b6102226103ae366004612a9b565b611744565b6001546001600160a01b0316610283565b600254610283906001600160a01b031681565b6102226103e5366004612a9b565b611ae7565b6103f2611dbc565b6040516102099190612baf565b6101fc611e4b565b610222610415366004612c1e565b611f9b565b61033960065481565b610436610431366004612a9b565b612255565b6040519015158152602001610209565b61033960055481565b61046261045d366004612a9b565b612355565b604080516001600160a01b03909516855260208501939093529183015215156060820152608001610209565b61022261239c565b61049e612500565b604051610209919081516001600160a01b031681526020808301519082015260408083015190820152606080830151908201526080808301519082015260a0828101519082015260c09182015115159181019190915260e00190565b610222610508366004612c4a565b61259e565b6004805461051a90612c73565b80601f016020809104026020016040519081016040528092919081815260200182805461054690612c73565b80156105935780601f1061056857610100808354040283529160200191610593565b820191906000526020600020905b81548152906001019060200180831161057657829003601f168201915b505050505081565b60606000601254116105f45760405162461bcd60e51b815260206004820152601c60248201527f4e6f2061636365737320636f64652067656e657261746564207965740000000060448201526064015b60405180910390fd5b601254600090815260116020526040902060028101546001600160a01b031633148061062a57506001546001600160a01b031633145b8061063f57506014546001600160a01b031633145b61065b5760405162461bcd60e51b81526004016105eb90612cad565b6002810154600160a01b900460ff166106ae5760405162461bcd60e51b81526020600482015260156024820152744e6f206163746976652061636365737320636f646560581b60448201526064016105eb565b805481906106bb90612c73565b80601f01602080910402602001604051908101604052809291908181526020018280546106e790612c73565b80156107345780601f1061070957610100808354040283529160200191610734565b820191906000526020600020905b81548152906001019060200180831161071757829003601f168201915b505050505091505090565b6107476125d9565b6007546001600160a01b031633146107715760405162461bcd60e51b81526004016105eb90612cef565b600160028054600160a01b900460ff169081111561079157610791612a4f565b146107ce5760405162461bcd60e51b815260206004820152600d60248201526c496e76616c696420737461746560981b60448201526064016105eb565b60025460085460405163a9059cbb60e01b81526001600160a01b039092169163a9059cbb9161080291339190600401612d17565b6020604051808303816000875af1158015610821573d6000803e3d6000fd5b505050506040513d601f19601f820116820180604052508101906108459190612d30565b6108615760405162461bcd60e51b81526004016105eb90612d52565b610869612603565b6108736001600055565b565b6013805461051a90612c73565b61088a6125d9565b600e5481106108cf5760405162461bcd60e51b8152602060048201526011602482015270092dcecc2d8d2c840c4d2c840d2dcc8caf607b1b60448201526064016105eb565b6000600e82815481106108e4576108e4612d7b565b6000918252602090912060049091020180549091506001600160a01b0316331461093f5760405162461bcd60e51b815260206004820152600c60248201526b139bdd081e5bdd5c88189a5960a21b60448201526064016105eb565b600381015460ff1661098b5760405162461bcd60e51b81526020600482015260156024820152742134b21030b63932b0b23c903bb4ba34323930bbb760591b60448201526064016105eb565b60038101805460ff19169055600254600182015460405163a9059cbb60e01b81526001600160a01b039092169163a9059cbb916109cd91339190600401612d17565b6020604051808303816000875af11580156109ec573d6000803e3d6000fd5b505050506040513d601f19601f82011682018060405250810190610a109190612d30565b610a2c5760405162461bcd60e51b81526004016105eb90612d52565b600181015460405190815233907f03f0427e8bcfdf5f69217150cf160ebe2dac5fa607336fd7643bfd61a90190809060200160405180910390a250610a716001600055565b50565b6060610a7e6125d9565b6007546001600160a01b03163314610aa85760405162461bcd60e51b81526004016105eb90612cef565b600160028054600160a01b900460ff1690811115610ac857610ac8612a4f565b14610b055760405162461bcd60e51b815260206004820152600d60248201526c496e76616c696420737461746560981b60448201526064016105eb565b600a544210801590610b255750600a54610b229062015180612da7565b42105b610b655760405162461bcd60e51b81526020600482015260116024820152704e6f7420636865636b2d696e2074696d6560781b60448201526064016105eb565b600854600554811115611041576005546000610b818284612dba565b905060006064610b92605f85612dcd565b610b9c9190612de4565b905060006064610bad600586612dcd565b610bb79190612de4565b905060006064610bc8602886612dcd565b610bd29190612de4565b905060006064610be3601e87612dcd565b610bed9190612de4565b905060006064610bfe601488612dcd565b610c089190612de4565b905060006064610c19600a89612dcd565b610c239190612de4565b6002546014549192506001600160a01b039081169163a9059cbb9116610c49858a612da7565b6040518363ffffffff1660e01b8152600401610c66929190612d17565b6020604051808303816000875af1158015610c85573d6000803e3d6000fd5b505050506040513d601f19601f82011682018060405250810190610ca99190612d30565b610cf55760405162461bcd60e51b815260206004820152601b60248201527f5265616c20657374617465207472616e73666572206661696c6564000000000060448201526064016105eb565b6002546015546001600160a01b039182169163a9059cbb9116610d188489612da7565b6040518363ffffffff1660e01b8152600401610d35929190612d17565b6020604051808303816000875af1158015610d54573d6000803e3d6000fd5b505050506040513d601f19601f82011682018060405250810190610d789190612d30565b610dc45760405162461bcd60e51b815260206004820152601d60248201527f4469676974616c20686f757365207472616e73666572206661696c656400000060448201526064016105eb565b60025460405163a9059cbb60e01b81526001600160a01b039091169063a9059cbb90610df69033908890600401612d17565b6020604051808303816000875af1158015610e15573d6000803e3d6000fd5b505050506040513d601f19601f82011682018060405250810190610e399190612d30565b610e855760405162461bcd60e51b815260206004820152601e60248201527f43757272656e7420626f6f6b6572207472616e73666572206661696c6564000060448201526064016105eb565b6010546001600160a01b031615610f605760025460105460405163a9059cbb60e01b81526001600160a01b039283169263a9059cbb92610ecc929116908790600401612d17565b6020604051808303816000875af1158015610eeb573d6000803e3d6000fd5b505050506040513d601f19601f82011682018060405250810190610f0f9190612d30565b610f5b5760405162461bcd60e51b815260206004820152601b60248201527f4c61737420626f6f6b6572207472616e73666572206661696c6564000000000060448201526064016105eb565b611034565b60025460145460405163a9059cbb60e01b81526001600160a01b039283169263a9059cbb92610f96929116908790600401612d17565b6020604051808303816000875af1158015610fb5573d6000803e3d6000fd5b505050506040513d601f19601f82011682018060405250810190610fd99190612d30565b6110345760405162461bcd60e51b815260206004820152602660248201527f4164646974696f6e616c207265616c20657374617465207472616e736665722060448201526519985a5b195960d21b60648201526084016105eb565b5050505050505050611204565b60006064611050605f84612dcd565b61105a9190612de4565b90506000606461106b600585612dcd565b6110759190612de4565b60025460145460405163a9059cbb60e01b81529293506001600160a01b039182169263a9059cbb926110ad9216908690600401612d17565b6020604051808303816000875af11580156110cc573d6000803e3d6000fd5b505050506040513d601f19601f820116820180604052508101906110f09190612d30565b61113c5760405162461bcd60e51b815260206004820152601b60248201527f5265616c20657374617465207472616e73666572206661696c6564000000000060448201526064016105eb565b60025460155460405163a9059cbb60e01b81526001600160a01b039283169263a9059cbb92611172929116908590600401612d17565b6020604051808303816000875af1158015611191573d6000803e3d6000fd5b505050506040513d601f19601f820116820180604052508101906111b59190612d30565b6112015760405162461bcd60e51b815260206004820152601d60248201527f4469676974616c20686f757365207472616e73666572206661696c656400000060448201526064016105eb565b50505b6013805461121190612c73565b80601f016020809104026020016040519081016040528092919081815260200182805461123d90612c73565b801561128a5780601f1061125f5761010080835404028352916020019161128a565b820191906000526020600020905b81548152906001019060200180831161126d57829003601f168201915b5050600c54601281905560408051608081018252868152426020808301919091523382840152600160608301526000938452601190529120815195975090949093508392506112da915082612e54565b5060208201516001820155604080830151600292830180546060909501516001600160a01b039092166001600160a81b031990951694909417600160a01b9115159190910217909255805460ff60a01b1916600160a11b1790555133907f13ffc29621136d3a083cd4989f8d1d76b4e2deff0d89f5bc1ca30903183891e490611364908590612a35565b60405180910390a2506113776001600055565b90565b6003805461051a90612c73565b6014546001600160a01b03163314806113aa57506001546001600160a01b031633145b6114065760405162461bcd60e51b815260206004820152602760248201527f4f6e6c79207661756c74206f776e65722063616e207570646174652061636365604482015266737320636f646560c81b60648201526084016105eb565b600481511015801561141a5750600c815111155b6114665760405162461bcd60e51b815260206004820152601c60248201527f436f6465206d75737420626520342d313220636861726163746572730000000060448201526064016105eb565b60136114728282612e54565b50336001600160a01b03167fcbfb23fbd3e73a2377a16b82da61cdff09117de7a820f4f6b5d558cb6e6d79a0826040516114ac9190612a35565b60405180910390a250565b6114bf612736565b6108736000612763565b6000818152601160205260409020600201546060906001600160a01b03166115335760405162461bcd60e51b815260206004820152601a60248201527f41636365737320636f646520646f6573206e6f7420657869737400000000000060448201526064016105eb565b600082815260116020526040902060020154600160a01b900460ff166115945760405162461bcd60e51b815260206004820152601660248201527541636365737320636f6465206e6f742061637469766560501b60448201526064016105eb565b600082815260116020526040902060028101546001600160a01b03163314806115c757506001546001600160a01b031633145b806115dc57506014546001600160a01b031633145b6115f85760405162461bcd60e51b81526004016105eb90612cad565b8054819061160590612c73565b80601f016020809104026020016040519081016040528092919081815260200182805461163190612c73565b801561167e5780601f106116535761010080835404028352916020019161167e565b820191906000526020600020905b81548152906001019060200180831161166157829003601f168201915b5050505050915050919050565b606060008060006003600260149054906101000a900460ff166005546006548380546116b690612c73565b80601f01602080910402602001604051908101604052809291908181526020018280546116e290612c73565b801561172f5780601f106117045761010080835404028352916020019161172f565b820191906000526020600020905b81548152906001019060200180831161171257829003601f168201915b50505050509350935093509350935090919293565b61174c6125d9565b6007546001600160a01b0316331461179c5760405162461bcd60e51b81526020600482015260136024820152722737ba1037b934b3b4b730b6103137b7b5b2b960691b60448201526064016105eb565b600160028054600160a01b900460ff16908111156117bc576117bc612a4f565b146118005760405162461bcd60e51b81526020600482015260146024820152734e6f7420696e2061756374696f6e20737461746560601b60448201526064016105eb565b600a54611811906201518090612dba565b42101580156118215750600a5442105b6118795760405162461bcd60e51b815260206004820152602360248201527f43616e206f6e6c792063656465203120646179206265666f726520636865636b60448201526216b4b760e91b60648201526084016105eb565b600e5481106118be5760405162461bcd60e51b8152602060048201526011602482015270092dcecc2d8d2c840c4d2c840d2dcc8caf607b1b60448201526064016105eb565b6000600e82815481106118d3576118d3612d7b565b60009182526020909120600490910201600381015490915060ff1661192b5760405162461bcd60e51b815260206004820152600e60248201526d426964206e6f742061637469766560901b60448201526064016105eb565b6008546001820154116119805760405162461bcd60e51b815260206004820152601d60248201527f426964206d75737420626520686967686572207468616e207374616b6500000060448201526064016105eb565b600754601080546001600160a01b0319166001600160a01b0392831690811790915560025460085460405163a9059cbb60e01b8152919093169263a9059cbb926119cf92909190600401612d17565b6020604051808303816000875af11580156119ee573d6000803e3d6000fd5b505050506040513d601f19601f82011682018060405250810190611a129190612d30565b611a545760405162461bcd60e51b815260206004820152601360248201527214dd185ad9481c99599d5b990819985a5b1959606a1b60448201526064016105eb565b6007805482546001600160a01b031982166001600160a01b0391821617909255600183015460085560038301805460ff1916905516611a92836127b5565b815460018301546040519081526001600160a01b03918216918316907f239b49a1734f05a219fb09284e7efed82d966f9cf96a5cce041b4a5ef224a0f99060200160405180910390a35050610a716001600055565b611aef6125d9565b600160028054600160a01b900460ff1690811115611b0f57611b0f612a4f565b14611b535760405162461bcd60e51b81526020600482015260146024820152734e6f7420696e2061756374696f6e20737461746560601b60448201526064016105eb565b6008548111611b995760405162461bcd60e51b81526020600482015260126024820152712134b21036bab9ba103132903434b3b432b960711b60448201526064016105eb565b600a54611baa906201518090612dba565b4210611bf05760405162461bcd60e51b81526020600482015260156024820152742a37b79031b637b9b2903a379031b432b1b596b4b760591b60448201526064016105eb565b6002546040516323b872dd60e01b8152336004820152306024820152604481018390526001600160a01b03909116906323b872dd906064016020604051808303816000875af1158015611c47573d6000803e3d6000fd5b505050506040513d601f19601f82011682018060405250810190611c6b9190612d30565b611c875760405162461bcd60e51b81526004016105eb90612d52565b6040805160808101825233808252602080830185815242848601908152600160608601818152600e8054928301815560005295517fbb7b4a454dc3493923482f07822329ed19e8244eff582cc204f8554c3620c3fd600490920291820180546001600160a01b0319166001600160a01b0390921691909117905591517fbb7b4a454dc3493923482f07822329ed19e8244eff582cc204f8554c3620c3fe830155517fbb7b4a454dc3493923482f07822329ed19e8244eff582cc204f8554c3620c3ff82015592517fbb7b4a454dc3493923482f07822329ed19e8244eff582cc204f8554c3620c400909301805460ff19169315159390931790925591518381527f3fabff0a9c3ecd6814702e247fa9733e5d0aa69e3a38590f92cb18f623a2254d910160405180910390a2610a716001600055565b6060600e805480602002602001604051908101604052809291908181526020016000905b82821015611e42576000848152602090819020604080516080810182526004860290920180546001600160a01b03168352600180820154848601526002820154928401929092526003015460ff16151560608301529083529092019101611de0565b50505050905090565b6014546060906001600160a01b0316331480611e7157506001546001600160a01b031633145b80611ead57506002808054600160a01b900460ff1690811115611e9657611e96612a4f565b148015611ead57506007546001600160a01b031633145b611f0b5760405162461bcd60e51b815260206004820152602960248201527f4e6f7420617574686f72697a656420746f2076696577206d61737465722061636044820152686365737320636f646560b81b60648201526084016105eb565b60138054611f1890612c73565b80601f0160208091040260200160405190810160405280929190818152602001828054611f4490612c73565b8015611f915780601f10611f6657610100808354040283529160200191611f91565b820191906000526020600020905b815481529060010190602001808311611f7457829003601f168201915b5050505050905090565b611fa36125d9565b600060028054600160a01b900460ff1690811115611fc357611fc3612a4f565b146120065760405162461bcd60e51b81526020600482015260136024820152725661756c74206e6f7420617661696c61626c6560681b60448201526064016105eb565b6005548310156120515760405162461bcd60e51b81526020600482015260166024820152755374616b652062656c6f77206261736520707269636560501b60448201526064016105eb565b4282116120a05760405162461bcd60e51b815260206004820152601a60248201527f436865636b2d696e206d75737420626520696e2066757475726500000000000060448201526064016105eb565b8181116120df5760405162461bcd60e51b815260206004820152600d60248201526c496e76616c696420646174657360981b60448201526064016105eb565b6002546040516323b872dd60e01b8152336004820152306024820152604481018590526001600160a01b03909116906323b872dd906064016020604051808303816000875af1158015612136573d6000803e3d6000fd5b505050506040513d601f19601f8201168201806040525081019061215a9190612d30565b6121765760405162461bcd60e51b81526004016105eb90612d52565b600f8054336001600160a01b031991821681179092556040805160e08101825283815260208082018890526064828401819052606083018890526080830187905260065460a08401819052600160c09094018490526007805490961687179095556008899055600955600a879055600b869055600c93909355600d805460ff191690911790556002805460ff60a01b1916600160a01b179055805186815291820185905280517ff3aa29be3ef45b2f1bcca231860e1ecd5917d56787f18e0344e80c9e78f2a1a59281900390910190a26122506001600055565b505050565b6000818152601160205260408120600201546001600160a01b03166122bc5760405162461bcd60e51b815260206004820152601a60248201527f41636365737320636f646520646f6573206e6f7420657869737400000000000060448201526064016105eb565b600082815260116020526040902060028101546001600160a01b03163314806122ef57506001546001600160a01b031633145b8061230457506014546001600160a01b031633145b6123415760405162461bcd60e51b815260206004820152600e60248201526d139bdd08185d5d1a1bdc9a5e995960921b60448201526064016105eb565b60020154600160a01b900460ff1692915050565b600e818154811061236557600080fd5b600091825260209091206004909102018054600182015460028301546003909301546001600160a01b039092169350919060ff1684565b6123a46125d9565b6007546001600160a01b031633146123ce5760405162461bcd60e51b81526004016105eb90612cef565b6002808054600160a01b900460ff16908111156123ed576123ed612a4f565b146124315760405162461bcd60e51b81526020600482015260146024820152734e6f7420696e20736574746c656420737461746560601b60448201526064016105eb565b600b5442101561247c5760405162461bcd60e51b8152602060048201526016602482015275139bdd0818da1958dacb5bdd5d081d1a5b59481e595d60521b60448201526064016105eb565b601254600090815260116020526040902060020154600160a01b900460ff16156124c0576012546000908152601160205260409020600201805460ff60a01b191690555b600c5460405190815233907f5d5b65175ba1e9166556e2469dcf53870868a4f3cb8ed2fb9f04ddf5b7f3369e9060200160405180910390a2610869612915565b61254b6040518060e0016040528060006001600160a01b0316815260200160008152602001600081526020016000815260200160008152602001600081526020016000151581525090565b506040805160e0810182526007546001600160a01b03168152600854602082015260095491810191909152600a546060820152600b546080820152600c5460a0820152600d5460ff16151560c082015290565b6125a6612736565b6001600160a01b0381166125d057604051631e4fbdf760e01b8152600060048201526024016105eb565b610a7181612763565b6002600054036125fc57604051633ee5aeb560e01b815260040160405180910390fd5b6002600055565b600e541561272e5760008060005b600e548110156126b657600e818154811061262e5761262e612d7b565b600091825260209091206003600490920201015460ff168015612674575081600e828154811061266057612660612d7b565b906000526020600020906004020160010154115b156126a457600e818154811061268c5761268c612d7b565b90600052602060002090600402016001015491508092505b806126ae81612f14565b915050612611565b508015612722576000600e83815481106126d2576126d2612d7b565b600091825260209091206004909102018054600780546001600160a01b0319166001600160a01b03909216919091179055600181015460085560038101805460ff191690559050612250836127b5565b61272a612915565b5050565b610873612915565b6001546001600160a01b031633146108735760405163118cdaa760e01b81523360048201526024016105eb565b600180546001600160a01b038381166001600160a01b0319831681179093556040519116919082907f8be0079c531659141344cd1fd0a4f28419497f9722a3daafe3b4186f6b6457e090600090a35050565b60005b600e5481101561272a578181141580156127f85750600e81815481106127e0576127e0612d7b565b600091825260209091206003600490920201015460ff165b15612903576000600e828154811061281257612812612d7b565b60009182526020909120600490910201600301805460ff1916911515919091179055600254600e80546001600160a01b039092169163a9059cbb91908490811061285e5761285e612d7b565b6000918252602090912060049091020154600e80546001600160a01b03909216918590811061288f5761288f612d7b565b9060005260206000209060040201600101546040518363ffffffff1660e01b81526004016128be929190612d17565b6020604051808303816000875af11580156128dd573d6000803e3d6000fd5b505050506040513d601f19601f820116820180604052508101906129019190612d30565b505b8061290d81612f14565b9150506127b8565b600780546001600160a01b0319169055600060088190556009819055600a819055600b819055600c819055600d805460ff1916905561295690600e90612996565b6002805460ff60a01b191690556006805490600061297383612f14565b9091555050600f80546001600160a01b0319908116909155601080549091169055565b5080546000825560040290600052602060002090810190610a7191905b808211156129eb5780546001600160a01b0319168155600060018201819055600282015560038101805460ff191690556004016129b3565b5090565b6000815180845260005b81811015612a15576020818501810151868301820152016129f9565b506000602082860101526020601f19601f83011685010191505092915050565b602081526000612a4860208301846129ef565b9392505050565b634e487b7160e01b600052602160045260246000fd5b60038110612a8357634e487b7160e01b600052602160045260246000fd5b9052565b60208101612a958284612a65565b92915050565b600060208284031215612aad57600080fd5b5035919050565b634e487b7160e01b600052604160045260246000fd5b600060208284031215612adc57600080fd5b813567ffffffffffffffff80821115612af457600080fd5b818401915084601f830112612b0857600080fd5b813581811115612b1a57612b1a612ab4565b604051601f8201601f19908116603f01168101908382118183101715612b4257612b42612ab4565b81604052828152876020848701011115612b5b57600080fd5b826020860160208301376000928101602001929092525095945050505050565b608081526000612b8e60808301876129ef565b9050612b9d6020830186612a65565b60408201939093526060015292915050565b602080825282518282018190526000919060409081850190868401855b82811015612c1157815180516001600160a01b031685528681015187860152858101518686015260609081015115159085015260809093019290850190600101612bcc565b5091979650505050505050565b600080600060608486031215612c3357600080fd5b505081359360208301359350604090920135919050565b600060208284031215612c5c57600080fd5b81356001600160a01b0381168114612a4857600080fd5b600181811c90821680612c8757607f821691505b602082108103612ca757634e487b7160e01b600052602260045260246000fd5b50919050565b60208082526022908201527f4e6f7420617574686f72697a656420746f20766965772061636365737320636f604082015261646560f01b606082015260800190565b6020808252600e908201526d2737ba103a3432903137b7b5b2b960911b604082015260600190565b6001600160a01b03929092168252602082015260400190565b600060208284031215612d4257600080fd5b81518015158114612a4857600080fd5b6020808252600f908201526e151c985b9cd9995c8819985a5b1959608a1b604082015260600190565b634e487b7160e01b600052603260045260246000fd5b634e487b7160e01b600052601160045260246000fd5b80820180821115612a9557612a95612d91565b81810381811115612a9557612a95612d91565b8082028115828204841417612a9557612a95612d91565b600082612e0157634e487b7160e01b600052601260045260246000fd5b500490565b601f82111561225057600081815260208120601f850160051c81016020861015612e2d5750805b601f850160051c820191505b81811015612e4c57828155600101612e39565b505050505050565b815167ffffffffffffffff811115612e6e57612e6e612ab4565b612e8281612e7c8454612c73565b84612e06565b602080601f831160018114612eb75760008415612e9f5750858301515b600019600386901b1c1916600185901b178555612e4c565b600085815260208120601f198616915b82811015612ee657888601518255948401946001909101908401612ec7565b5085821015612f045787850151600019600388901b60f8161c191681555b5050505050600190811b01905550565b600060018201612f2657612f26612d91565b506001019056fea26469706673582212207685dc41d2071100e61a66c87890051f3480d6a5e476769ab9f77822922c2e9964736f6c63430008140033",
  "linkReferences": {},
  "deployedLinkReferences": {}
}